:100000000C942A000C9447000C9447000C94470071
:100010000C9447000C9447000C9447000C94470044
:100020000C9447000C9447000C9481050C944700F5
:100030000C9447000C9447000C9447000C94470024
:100040000C9447000C9447000C9447000C94470014
:100050000C94470011241FBECFE5D8E0DEBFCDBF12
:1000600012E0A0E6B0E0E6E6FFE002C005900D92E7
:10007000A439B107D9F714E0A4E9B2E001C01D9298
:10008000A03EB107E1F70E94C8010C94B1070C949F
:1000900000000895DF92EF92FF920F931F93CF938A
:1000A000DF9389ED94E00E9430058AB38F788ABB94
:1000B00089ED94E00E945C0582ED94E00E94300599
:1000C00084E060E00E940F0780E690E00E947007E5
:1000D00082ED94E00E945C0582E0E82EFF24F39418
:1000E00089ED94E00E94300509B310E000711070B2
:1000F000D9B2C9B3D0E0C074D07089ED94E00E9449
:100100005C0580919402813021F5D5FC22C089EDF7
:1001100094E00E94300589ED94E00E945C0584E43F
:1001200093E00E943005E092940284E493E00E9400
:100130005C0582ED94E00E94300584E060E00E945E
:100140000F0788E690E00E94700782ED94E00E941D
:100150005C050115110511F589ED94E00E9430054B
:1001600089ED94E00E945C0584E493E00E943005F0
:10017000F092940284E493E00E945C0582ED94E0A6
:100180000E94300584E060E00E940F0780E790E065
:100190000E94700782ED94E00E945C05209761F553
:1001A00089ED94E00E94300589ED94E00E945C05A1
:1001B00084E493E00E9430051092940284E493E07A
:1001C0000E945C0582ED94E00E94300584E060E0CE
:1001D0000E940F0780E690E00E94700782ED94E095
:1001E0000E945C058BE493E00E943005109295021A
:1001F0008BE493E00E945C050E949B0342E350E085
:1002000060E070E00E942A036BCFFB0120E002C097
:100210002F5F84568436E0F790E002C09F5F8A50DB
:100220008A30E0F7205D203309F420E2905D9033BE
:1002300009F490E220839183805D82831382089584
:10024000AF92BF92CF92DF92EF92FF920F931F93E4
:10025000DF93CF93CDB7DEB762970FB6F894DEBFCA
:100260000FBECDBF0E947D078E010F5F1F4F27E09D
:10027000E22EF12CEC0EFD1E9DE0C92ED12CCC0EF1
:10028000DD1E80E090E00E948207A82E81E090E0D1
:100290000E948207B82E8A2DB8010E9405018B2D7D
:1002A000B7010E94050180919502B6010E940501E7
:1002B00082ED94E00E94300580E060E00E940F072C
:1002C00088E790E00E947007C6010E94700781E0F5
:1002D00060E00E940F078FE790E00E947007C8015E
:1002E0000E94700782E060E00E940F0787E890E0BC
:1002F0000E947007C7010E94700782ED94E00E947F
:100300005C0584E493E00E943005B090940284E49C
:1003100093E00E945C058BE493E00E943005BB20D3
:1003200029F0809195028F5F809395028BE493E092
:100330000E945C0580919402813009F588E790E085
:100340000E942C02C6010E942C028EE890E00E94BE
:100350002C028FE790E00E942C02C8010E942C0220
:100360008EE890E00E942C0281E990E00E942C022D
:10037000C7010E942C028EE890E00E942C020E948D
:100380009B0348EE53E060E070E00E942A0379CFBF
:100390000E944B0482ED94E061E00E94270589ED04
:1003A00094E061E00E94270584E493E061E00E940C
:1003B00027058BE493E061E00E94270589E490E043
:1003C00062E574E041E02FE930E00E94B10380E291
:1003D00091E062ED74E040E024EA30E00E94B10375
:1003E0008AE490E062ED73E042E028EA30E00E94A7
:1003F000B1030E94280382ED94E00E9430050E9420
:10040000B80682ED94E00E945C050E948B0783E0B1
:100410000E9416028CE00E9424020E949B0340ED81
:1004200057E060E070E00E942A03F7CF1AB880FD21
:10043000539A81FD549A82E08BB910BC8FEC89B934
:1004400081E080939602089590919602992319F085
:100450005D9BFECF8CB90895CF93DF93C82FD92F22
:1004600002C00E94240289918823D9F7DF91CF919D
:10047000089580919602882321F05F9BFECF8CB176
:10048000089580E0089580919602882339F02BB179
:1004900030E0207830703595279502C020E030E0BC
:1004A000C901089585B7806885BF85B78F7885BFF6
:1004B0008895FECF12BE8BE083BF8AEF8CBF89B7D1
:1004C000826089BF08950F920FB6F8940F921F9221
:1004D00011242F923F924F925F926F927F928F9250
:1004E0009F92AF92BF92CF92DF92EF92FF920F93C3
:1004F0001F932F933F934F935F936F937F938F93AC
:100500009F93AF93BF93CF93DF93EF93FF9320918C
:10051000FD029EB78DB730E0F90164E0EE0FFF1FDA
:100520006A95E1F7E21BF30BE356FD4F392F20E00C
:1005300090E0822B932B9287818760E070E0FB0133
:10054000E950FD4F10811F3FE1F1812F90E0FC0148
:1005500054E0EE0FFF1F5A95E1F7E81BF90BE35645
:10056000FD4F2385213049F42485222331F425854C
:10057000222319F42685222309F1FC0144E0EE0F21
:10058000FF1F4A95E1F7E81BF90BE356FD4FEF011A
:100590002C9684858130A9F42091990230919A0299
:1005A00040919B0250919C0285819681A781B085E4
:1005B000281739074A075B0720F018821093FD02BD
:1005C00006C06F5F7F4F6630710509F0B8CF80912C
:1005D000FD0290E0FC0134E0EE0FFF1F3A95E1F7D9
:1005E000E81BF90BEA55FD4F81818EBF8091FD021A
:1005F00090E0FC0124E0EE0FFF1F2A95E1F7E81BD5
:10060000F90BE356FD4F81858DBFFF91EF91DF918F
:10061000CF91BF91AF919F918F917F916F915F919A
:100620004F913F912F911F910F91FF90EF90DF908D
:10063000CF90BF90AF909F908F907F906F905F9082
:100640004F903F902F901F900F900FBE0F900895E6
:1006500078940895CF93A82FCB01BA01A63028F53E
:100660002091990230919A0240919B0250919C02F4
:10067000CFB7F894B0E0FD01E295F295F07FFE2748
:10068000E07FFE27EA1BFB0BE356FD4F260F371FCB
:10069000481F591F258336834783508781E084870D
:1006A000CFBF0E94630280E001C08FEFCF91089519
:1006B000863098F42FB7F89490E0FC0134E0EE0F08
:1006C000FF1F3A95E1F7E81BF90BE356FD4F14863F
:1006D0002FBF0E94630280E008958FEF0895863057
:1006E00018F59FB7F894282F30E0F90144E0EE0F99
:1006F000FF1F4A95E1F7E21BF30BE356FD4F13860C
:1007000020E030E04FEFF901E950FD4F50815817DC
:1007100009F440832F5F3F4F26303105A1F79FBF7B
:100720000E94630280E008958FEF08958091FD029A
:100730000E946F0308958091FD020895242F352FA4
:10074000D901262FFC0102C0319321503D91332362
:1007500011F02223C9F7860F911D0197FC01108229
:1007600008958F929F92BF92CF92DF92EF92FF9265
:100770000F931F93DF93CF930F92CDB7DEB7D82E91
:10078000C92E7B01463008F078C0BFB6F89470E0FF
:1007900001C07F5F872F90E04C0154E0880C991CCA
:1007A0005A95E1F7881A990A8DE992E0880E991E08
:1007B000F4013B96D4011B968C911B97813049F331
:1007C000042F10E009501D4FD8018C918F3F11F478
:1007D000763010F0BFBE51C081E08083C40165E077
:1007E000A90179830E949E03F401F286E18686E9DD
:1007F00093E0D7018C930184F285E02D3197D401E9
:100800001A96FC93EE93199790831996ED91FC91AB
:100810001A9731971A96FC93EE931997D0821996EE
:10082000ED91FC911A9731971A96FC93EE931997D4
:10083000C0821996ED91FC911A9731971A96FC9304
:10084000EE93199710821996ED91FC911A973197B2
:100850001A96FC93EE93199780E8808319968D91F0
:100860009C911A9780971A969C938E9319977981E9
:10087000F8017083BFBE872F01C08FEF0F90CF911B
:10088000DF911F910F91FF90EF90DF90CF90BF907D
:100890009F908F900895FF920F931F93CF93DF93B4
:1008A000C6EAD2E000E010E0FF24FA941A821B822C
:1008B0001C821D82C80164E0880F991F6A95E1F7C8
:1008C000801B910B83569D4F65E04CEA50E00E94DF
:1008D0009E0319821882F801E950FD4FF0820F5FE4
:1008E0001F4F2F960630110509F781E08093A8026B
:1008F0008DE992E065E04DEA50E00E949E039EB7CC
:100900008DB7392F20E090E0822B932B9093A70294
:100910008093A602E7EFF2E014821092FD0282E5D6
:1009200092E06DE373E045E022EB30E00E94B1031A
:100930000E945A02DF91CF911F910F91FF9008956D
:10094000AB01282F30E0C90174E0880F991F7A9518
:10095000E1F7821B930B83569D4F65E00E949E0337
:10096000089590E09C01E4E0220F331FEA95E1F73F
:10097000281B390B23563D4FC901089520E030E074
:10098000F901E950FD4F9081981711F4822F0895D5
:100990002F5F3F4F2630310599F78FEF08950F9362
:1009A0001F93DF93CF930F92CDB7DEB7182F66302A
:1009B000D0F48630C0F40FB7F89469830E94BE0467
:1009C0006981E62FF0E0E950FD4F90819F3F31F4BF
:1009D0001083E82FF0E0E950FD4F90830FBF0E9495
:1009E000630280E001C08FEF0F90CF91DF911F91E4
:1009F0000F9108958630A0F42FB7F89490E0FC0191
:100A0000A4E0EE0FFF1FAA95E1F7E81BF90BE356F0
:100A1000FD4F81E085872FBF0E94630280E008952B
:100A20008FEF0895863088F42FB7F89490E0FC019A
:100A3000B4E0EE0FFF1FBA95E1F7E81BF90BE356A0
:100A4000FD4F15862FBF80E008958FEF0895FC01BC
:100A50006083118212821382148215821682089595
:100A6000CF93DF93EC012FB7F8948881882321F08E
:100A7000815088832FBF1CC08091FD0290E0FE0151
:100A8000E80FF91F31E03183FC0144E0EE0FFF1F56
:100A90004A95E1F7E81BF90BE356FD4F36872FBF68
:100AA0000E9463029FB7F8948881815088839FBF1A
:100AB00080E0DF91CF910895CF93DF93EC018FB762
:100AC000F8949881992381F4EBEAF2E0DE01119623
:100AD00010821D923F9693E0E530F907C9F78FBF6A
:100AE0000E9463028FB7F89498819F3F29F09F5F1F
:100AF00098838FBF80E002C08FBF8FEFDF91CF91CF
:100B000008951F920F920FB60F9211242F933F93C7
:100B10004F935F936F937F938F939F93AF93BF9305
:100B2000EF93FF9380919702909198020196909392
:100B30009802809397028091990290919A02A091D5
:100B40009B02B0919C020196A11DB11D8093990258
:100B500090939A02A0939B02B0939C02809197027B
:100B6000909198028A30910530F01092980210927C
:100B700097020E946302FF91EF91BF91AF919F9105
:100B80008F917F916F915F914F913F912F910F9036
:100B90000FBE0F901F90189596989FEF97BB8823D4
:100BA00019F0929A939802C0939A929882B366230E
:100BB00011F0979A01C0979882B348BB80E002C0B9
:100BC00000008F5F8830E0F3959A80E002C000005B
:100BD0008F5F8230E0F3809343039598089517BAAE
:100BE000969A882319F0929A939802C0939A9298B1
:100BF00082B3662311F0979A01C0979882B380E080
:100C000002C000008F5F8830E0F3959A80E002C058
:100C100000008F5F8230E0F38093430386B39598A2
:100C20000895CF93C82F8C2F60E00E94EF05807944
:100C3000D1F7CF910895CF93C82F0E94CC058C2F68
:100C40000E941106CF910895CF93C0919202CF3F99
:100C5000C9F0409142034F7340648C2F60E00E94C2
:100C60001B06409141034770486B8C2F60E00E9447
:100C70001B068C2F61E0409140030E941B068FEF02
:100C800080939202CF9108950F931F93DF93CF9398
:100C90000F92CDB7DEB7182F062F809192028117E1
:100CA00041F480914103861721F480914203841717
:100CB00009F149830E94240600934103498140932E
:100CC0004203109392024F734064812F60E00E94B0
:100CD0001B06402F4770486B812F60E00E941B0667
:100CE000812F61E00E94EF05812F61E00E94EF05F6
:100CF000809340030F90CF91DF911F910F91089542
:100D0000CF93DF93C0E080E060E040E40E941B06E8
:100D10004C2F4770486B80E060E00E941B06D0E4D7
:100D200080E061E040E00E941B06D150C9F7CF5F30
:100D3000C83049F7C0E081E060E040E40E941B0653
:100D40004C2F4770486B81E060E00E941B06D0E4A6
:100D500081E061E040E00E941B06D150C9F7CF5FFF
:100D6000C83049F78FEF80939202DF91CF910895B9
:100D700017BA81B38C6E81BB82B38F7182BB82B391
:100D80008C6082BB80E00E94110681E00E94110607
:100D900080E060E04FE30E941B0681E060E04FE3EB
:100DA0000E941B0680E060E040EC0E941B0681E090
:100DB00060E040EC0E941B060E9480060895CF93DD
:100DC000DF93D42FC62FC77091E086FF90E070E0CC
:100DD0006F73707023E0759567952A95E1F7482F3A
:100DE0004F73892F0E94440620914003DD2349F070
:100DF00081E090E002C0880F991FCA95E2F7822B2C
:100E000009C081E090E002C0880F991FCA95E2F7FF
:100E10008095822380934003DF91CF910895962F90
:100E2000990F960F990F90933E03880F880F880FA4
:100E300080933F030895CF92DF92EF92FF920F933A
:100E40001F93CF93DF93803218F0813818F403C0DA
:100E500080E201C080E805E0809F80011124095EE6
:100E60001F4FDD2431E0E32EF12CF801C1908F01FA
:100E7000C0E0D0E09C2FFD2DF53089F0C73079F02F
:100E800080913E0360913F036C0FA7010C2E02C0BE
:100E9000440F551F0A94E2F74C218D0D07C0809135
:100EA0003E0360913F03690F8D0D40E00E94DF0615
:100EB0002196C830D105F1F6D394ED2DE630A9F690
:100EC00080913E038A5F80933E030E942406DF9157
:100ED000CF911F910F91FF90EF90DF90CF900895E9
:100EE000CF93DF93C82FD92F02C00E941B0789918F
:100EF0008823D9F7DF91CF91089580E287B987E9F8
:100F000086B908958770806287B9369A349BFECF80
:100F1000349A85B1089585E080B984E886BF82E07F
:100F200081B9089586B7806A86BF06B607FEFDCFF1
:100F300081B1887F883019F081B1887F089580E081
:100F4000089583B986B7806486BF06B606FEFDCFD6
:100F500081B181B1887F089586B7806986BF80E0BE
:060F60000895F894FFCF94
:100F660053746F707065640050617573656420001A
:100F760052756E6E696E670054696D653A20004C55
:100F8600696768743A200054656D703A20000D0A4E
:100F96000054656D70657261747572653A200075EE
:100FA600617274006164630062746E0000696E6948
:100FB600740069646C6500000000000000005F00BA
:100FC600000003000300143E143E14242A7F2A1254
:100FD6004333086661364955225000050300000078
:100FE6001C2241000041221C0014083E0814080877
:100FF6003E08080050300000080808080800606035
:10100600000020100804023E5149453E0004027FBC
:1010160000426151494622414949361814127F104F
:1010260027454545393E4949493201017109073687
:1010360049494936264949493E0036360000005698
:10104600360000081422410014141414140041221E
:10105600140802015109063E4159555E7E090909E7
:101066007E7F494949363E414141227F4141413EC9
:101076007F494949417F090909013E4141493A7F72
:101086000808087F00417F4100304040403F7F080C
:101096001422417F404040407F020C027F7F0204C1
:1010A600087F3E4141413E7F090909061E21212153
:1010B6005E7F09090976264949493201017F010106
:1010C6003F4040403F1F2040201F7F2010207F418F
:1010D600221C224107087008076151494543007FD9
:1010E60041000002040810200000417F00040201B4
:1010F6000204404040404000010204002054545481
:10110600787F444444383844444444384444447F13
:10111600385454541804047E0505085454543C7F2E
:101126000804047800447D40002040443D007F10C0
:1011360028440000417F40007C047804787C080441
:10114600047838444444387C1414140808141414DD
:101156007C007C080404485454542004043F44444E
:101166003C4040207C1C2040201C3C4030403C44FD
:10117600281028440C5050503C4464544C440008F9
:1011860036414100007F000041413608000201025D
:041196000402FF0050
:00000001FF
